:020000040800F2
:1000000080040020010100089F0200089B020008F4
:100010009D02000899010008A10B000800000000E3
:1000200000000000000000000000000011080008AF
:100030009B0100080000000045030008A908000813
:1000400017010008170100081701000849050008FA
:100050001701000817010008170100081701000820
:100060001701000817010008170100081701000810
:100070001701000817010008170100081701000800
:1000800017010008170100081701000817010008F0
:1000900017010008170100081701000817010008E0
:1000A00017010008170100081701000817010008D0
:1000B00017010008170100081701000817010008C0
:1000C00017010008170100081701000817010008B0
:1000D00017010008170100081701000817010008A0
:1000E000170100081701000817010008DFF80CD0FD
:1000F00000F02AF8004800476D0D00088004002039
:1001000005480047FEE7FEE7FEE7FEE7FEE7FEE7FD
:10011000FEE7FEE7FEE7FEE7ED00000830B50B4620
:10012000014600202022012409E021FA02F59D4227
:1001300005D303FA02F5491B04FA02F52844151EFB
:10014000A2F10102F1DC30BD064C074D06E0E0688B
:1001500040F0010394E8070098471034AC42F6D30E
:10016000FFF7C8FFC8100008E810000810B501200C
:1001700000F002F9BDE81040002000F0FDB80000DA
:100180000149085A70470000006C0040014A1150B4
:1001900070470000006C0040FEE77047F0B5CB7878
:1001A0000022DC0603F00F0301D58C7823430C8872
:1001B0004FF00F0C14F0FF0F4FF0010E1AD006682D
:1001C0000D880EFA02F42540A5420FD195000CFAD5
:1001D00005F726EA070703FA05F6CD783E43282DF2
:1001E00001D1446102E0482D00D10461521C082A6B
:1001F000E6D306600A88FF2A1ED946685FF000022F
:1002000002F108050EFA05F40D882540A5420FD12C
:1002100095000CFA05F726EA070703FA05F6CD78EC
:100220003E43282D00D14461CD78482D00D1046192
:10023000521C082AE4D34660F0BD0000F0B5104D12
:100240006B68440D260184B2C0F30157B440C0F37B
:100250000342032F06D1686823F0706220F07060BB
:10026000686008E0C00203D503209040834300E0AB
:10027000A34343F0706201B122436A60F0BD000005
:10028000000001400246926800200A4200D001208E
:1002900070474161704701617047FEE7FEE77047B4
:1002A00008B54FF4C06000F03DF803208DF8000061
:1002B00001208DF8010000218DF802108DF8030057
:1002C000684600F001F808BDF0B50F23C478017846
:1002D0004FF0E0220127E4B1D2F80C4D867804F407
:1002E000E064C4F5E064240AC4F10405E340447802
:1002F0001E40AC4026433301114481F8003400789D
:10030000410900F01F0002EB81018740C1F8007134
:10031000F0BD01F01F008740480902EB8000C0F8E3
:100320008071F0BD0249084302490860704700002F
:100330000000FA050CED00E001490862704700007A
:1003400000000E4270470000044A0029D16901D024
:10035000014300E08143D16170470000001002407A
:10036000044A0029916901D0014300E08143916171
:10037000704700000010024001490860704700000B
:10038000400442420248416A41F080714162704734
:100390000010024010B5204A5168204B11F00C01AA
:1003A00003D0042901D0082901D0036011E051686D
:1003B0005368022401F4701104EB914113F4803F5F
:1003C00002D053689B0301D5154B00E0134B5943F2
:1003D00001605168134B01F0F00109095C5C016890
:1003E000E1404160546804F4E064240A1C5D21FA91
:1003F00004F48460546804F46054E40A1B5DD9403A
:10040000C1605268074B02F44042920B1B1F9A5C7A
:10041000B1FBF2F1016110BD0010024000127A0040
:1004200000093D0018000020034600205909094A30
:10043000012901D1116804E0022901D1116A00E00B
:10044000516A03F01F02012393400B4200D00120A8
:100450007047000000100240064900220A7001F8AF
:100460002029012802D0042802D1052081F820008B
:1004700070470000201002400149086070470000EA
:100480003C04424202490A6A02430A627047000081
:1004900000100240024A1188814311807047000019
:1004A0000428004010B501214FF0C050FFF74CFF69
:1004B0000120FFF741FFFFF759FE0120FFF7CCFFB6
:1004C0004120FFF7B1FF0028FAD04FF48070FFF70A
:1004D000D9FF0120FFF7D0FF00F08EF800F082F87E
:1004E0000121084600F052F800F07CF847F6FF7052
:1004F00000F068F8BDE8104000F074B802480188C8
:1005000041F0100101807047042800400248018832
:1005100021F01001018070470428004002498888BA
:10052000098840EA014070471828004005498B8837
:100530000A880340D9B2024202D009B101207047B3
:10054000002070470028004010B50120FFF7EEFFA3
:10055000002816D00120FFF79DFF002000F04AF987
:1005600008490120086000F03DF8FFF7D7FF064971
:10057000884206D1002000F017F8BDE8104000F0D6
:1005800031B810BD0400002080510100054A002947
:10059000B2F8001801D0014300E08143A2F800182E
:1005A000704700000020004000B50246FFF7A6FF9C
:1005B0000348110C018082805DF804EBFFF7A6BFB1
:1005C0001828004000B50246FFF798FF0448C2F320
:1005D0000341018082805DF804EBFFF797BF0000C4
:1005E00008280040034800BFB0F804188906FBD56E
:1005F00070470000002000400648B0F8041821F0C1
:100600000801A0F8041800BFB0F804180907FBD5CA
:1006100070470000002000400029018802D041F00E
:10062000400101E021F040010180704730B5012117
:1006300087B08803FFF788FE01210820FFF790FEAE
:100640004FF46040ADF8040002248DF806401C20F1
:10065000214D8DF8070001A92846FFF79FFD600294
:10066000ADF8040004208DF8070001A92846FFF723
:1006700095FDA002ADF8040003208DF806001420BB
:100680008DF8070001A92846FFF788FD0020ADF886
:100690000800ADF80C000120ADF810004002ADF8E4
:1006A00012002820ADF814008020ADF80E40ADF8FF
:1006B00016004FF482710720084CADF80A10ADF80F
:1006C000180002A9204600F00DF801212046FFF78E
:1006D000A3FF07B030BD0000000C0140003800400F
:1006E0008181704770B502884D8802F441530A88B1
:1006F0008C88CE882A4334430D8922434C892A436F
:100700008D892243CC892A4322431A430280828B5B
:1007100022F400628283098A018270BDF8B5044622
:1007200022480D4650F82400012140F00100FFF757
:1007300017FE1E4E083E24B901213068FFF710FE57
:1007400008E001210820FFF779FD56F82400012177
:10075000FFF7FAFD1548164E183830F81400ADF8BA
:10076000000018208DF8030003208DF8020056F8D1
:1007700024006946FFF712FD0C486946143830F82A
:100780001400ADF8000004208DF8030056F8240092
:10079000FFF704FD083E56F82400294600F04AF908
:1007A00056F82400012100F033F9F8BD401000088C
:1007B0003000002038B504460C48012150F82400D0
:1007C000FFF7CEFD09486946183830F81400ADF837
:1007D000000010208DF8030003208DF8020004486B
:1007E00050F82400FFF7DAFC38BD0000481000087C
:1007F00038000020044951F82010CA68034B33F830
:1008000010004240CA6070473800002030100008D5
:1008100070470000224900200A6842F480320A60D2
:100820004FF4A0630A68401C12F4003F01D19842C3
:10083000F8D10868800331D51A48026842F01002E6
:100840000260026822F003020260026842F00202C3
:1008500002604868486048684860486840F48060C2
:100860004860486820F47C104860486840F4E8100C
:100870004860086840F08070086008688001FCD516
:10088000486820F003004860486840F00200486073
:100890004868C0F381000228FAD17047FEE70000E3
:1008A0000010024000200240704700000C48016820
:1008B00041F00101016041680A4A1140416001684C
:1008C000094A11400160016821F4802101604168FA
:1008D00021F4FE0141604FF41F018160FFF79ABFD0
:1008E000001002400000FFF8FFFFF6FE10B5FFF712
:1008F00079FE00F02BF8FFF757FEBDE81040FFF738
:1009000071BE00004FF46162B0FBF2F102FB110016
:100910003C23B0FBF3F230B4044C03FB1203083465
:100920000EC430BC02A000F03DB900000000002061
:1009300054696D653A2025302E32643A25302E32C6
:10094000643A25302E32640D0000000070B5FF2699
:1009500035461A4800F026F919A000F023F91720AF
:1009600000F0B2F80446FF28F9D021461AA000F0A2
:1009700019F91BA000F016F903E03B2000F0A4F8E1
:100980000646FF2EF9D0314613A000F00BF91AA04D
:1009900000F008F903E03B2000F096F80546FF2D33
:1009A000F9D029460CA000F0FDF84FF461604443F3
:1009B000C6EB061004EB8000284470BDE40F00086D
:1009C0000D0A2020506C65617365205365742048C2
:1009D0006F757273000000003A202025640000004B
:1009E0000D0A2020506C6561736520536574204D9D
:1009F000696E7574657300000D0A2020506C656186
:100A0000736520536574205365636F6E64730000D3
:100A10000029818902D041F4005101E021F4005104
:100A2000818170470246128800200A4200D00120CE
:100A30007047000030B50446008A85B00D464CF67C
:100A4000FF710840E98801432182A0894EF6F31125
:100A50000840A9882A8911436A8902431143A18168
:100A6000A08A4FF6FF410840A9890143A182684648
:100A7000FFF790FC1148844201D1039800E00298EE
:100A8000642200EBC00101EB001029686FF018032D
:100A90008900B0FBF1F0B0FBF2F109010D095D43F3
:100AA000322300EB850003EB0010B0FBF2F000F006
:100AB0000F000843208105B030BD00000038014020
:100AC0008088C0F3080070472DE9FC4100240746E8
:100AD0006D462046214685E80300164E202130460B
:100AE000FFF7A0FF0028F9D03046FFF7E9FF45F8EF
:100AF0002400641C05EB840050F8040C30380A28EC
:100B000003D30DA000F04EF8641E022CE6D3DDE9FD
:100B10000001144A00EB800002EB40000844B84298
:100B200006D9394610A000F03DF8FF20BDE8FC8151
:100B3000C0B2FBE7003801400A0D506C6561736577
:100B400020656E7465722076616C6964206E756DC7
:100B5000626572206265747765656E203020616E13
:100B600064203900F0FDFFFF0A0D506C656173656C
:100B700020656E7465722076616C6964206E756D97
:100B8000626572206265747765656E203020616EE3
:100B90006420256400000000C1F3080181807047D3
:100BA000FEE700000FB410B503A9044B044A0298F5
:100BB00000F018F810BC5DF814FB0000490D0008A7
:100BC0006800002002E008C8121F08C1002AFAD1FC
:100BD00070477047002001E001C1121F002AFBD1BD
:100BE000704700002DE9FF4F89B004469A46002562
:100BF0008FE0252875D10027641C4C4AB846012196
:100C00002378203B01FA03F0104202D00743641C12
:100C1000F6E720782E281AD114F8010F47F00407C0
:100C20002A280DD10A98641C50F8048B0A900EE013
:100C300008EB880002EB400001EB0008641C01E0B7
:100C40006FF02F022178A1F130000928F0D9207827
:100C5000002862D0642809D0692807D0752860D19F
:100C60000A994FF00A0901C90A9114E00A994FF054
:100C70000A0901C90A91002802DA40422D2102E046
:100C8000390504D52B218DF80010012104E0F90766
:100C900001D02021F7E700218B4609AE05E0494647
:100CA000FFF73CFA303106F8011D0028F7D101A802
:100CB000801B00F12009780701D44FF001080020C3
:100CC000C84501DDA8EB09008046002706E01DF8B5
:100CD000070052460B9990476D1C7F1C5F45F6DB61
:100CE00005E01EE0302052460B9990476D1CB8F18C
:100CF0000000A8F10108F5DC05E016F8010B5246EA
:100D00000B9990476D1CB9F10000A9F10109F4DCC1
:100D1000641C207800287FF46CAF28460DB0BDE835
:100D2000F08F52460B9990476D1CF1E7092801009E
:100D300000224EF6602304E00021491C9942FCD3B6
:100D4000521C8242F8D3704770B5074D0446C1B2B9
:100D50002846FFF721FF40212846FFF763FE0028C1
:100D6000F9D0204670BD0000003801402DE9F04761
:100D7000FFF79CFDFFF75AFC0020FFF71BFD6F48B3
:100D80004FF4E13101604FF00009A0F80490A0F8A1
:100D90000690A0F80890A0F80C900C214181014623
:100DA0004846FFF7BBFCFFF77BFA0420FFF7E8F9A2
:100DB0004AF2A554A0420ED061A0FFF7F3FEFFF760
:100DC00071FB67A0FFF7EEFEFFF790FD21460420C0
:100DD000FFF7DCF917E07B20FFF726FB08B166A0E0
:100DE00004E07A20FFF720FB10B16BA0FFF7DAFEDA
:100DF00071A0FFF7D7FEFFF7FFFB01210846FFF7C1
:100E0000C5FBFFF7EFFBFFF7BDFA734D4FF400642E
:100E100021462846FFF73FFA21462846FFF739FAD0
:100E20006420FFF785FF21462846FFF734FA0120AA
:100E3000FFF77EFF6410694EDFF8A4810A27214680
:100E40002846FFF71FFA70680128F8D1FFF766FB04
:100E5000FFF758FD2F214046FFF742FC2146284668
:100E6000FFF710FA30780128FDD0B068B0FBF7F03A
:100E7000303081B24046FFF733FC21462846FFF769
:100E800001FA0128F9D0B068B0FBF7F107FB1101B6
:100E900030314046FFF724FC21462846FFF7F2F99F
:100EA0000128F9D03A214046FFF71AFC214628468E
:100EB000FFF7E8F90128F9D0F068B0FBF7F030301F
:100EC00081B24046FFF70CFC21462846FFF7DAF9CD
:100ED0000128F9D0F068B0FBF7F107FB11013031C0
:100EE0004046FFF7FDFB21462846FFF7CBF90128D6
:100EF000F9D03A214046FFF7F3FB21462846FFF799
:100F0000C1F90128F9D03069B0FBF7F0303081B277
:100F10004046FFF7E5FB21462846FFF7B3F90128D5
:100F2000F9D03069B0FBF7F107FB110130314046D1
:100F3000FFF7D6FBC6F8049081E700006C000020A4
:100F40000D0A0A20525443206E6F74207965742074
:100F5000636F6E666967757265642E2E2E2E0000B3
:100F60000D0A2052544320636F6E6669677572657F
:100F7000642E2E2E2E0000000D0A0A20506F776579
:100F800072204F6E205265736574206F63637572B3
:100F90007265642E2E2E2E000D0A0A204578746587
:100FA000726E616C205265736574206F6363757235
:100FB0007265642E2E2E2E000D0A204E6F206E6557
:100FC000656420746F20636F6E6669677572652053
:100FD0005254432E2E2E2E00000C01400000002003
:100FE000003800400D0A3D3D3D3D3D3D3D3D3D3D10
:100FF0003D3D3D3D54696D652053657474696E6770
:10100000733D3D3D3D3D3D3D3D3D3D3D3D3D3D3DDA
:101010003D3D3D3D3D3D3D3D3D3D3D3D3D3D3D3D00
:101020003D3D3D3D3D3D00000002200000044000EC
:1010300040008000000100020040000000000200AB
:10104000040000002000000010000000100000005C
:10105000100000001000000001000020000201004C
:101060000200000100400010040000001000000019
:1010700008000000400000004000000020000000C8
:1010800020000000200000000100002000020100FC
:1010900002000001004000100000020001000400F6
:1010A000040003000300030000000D00090000001D
:1010B000010008000E000C000600280017000600C2
:1010C0000700170028002800E81000080000002092
:1010D0006C000000C40B0008541100086C000020D4
:1010E00014040000D40B0008000000000000000001
:1010F00000000000000000000000000002040608DC
:1011000000000000010203040102030406070809AD
:101110000038014000440040000801400014014034
:10112000001001400010014000100140001001407B
:101130000008014000100140000C0140001801406F
:101140000018014000140140001401400014014047
:04115000000000009B
:04000005080000ED02
:00000001FF
